:020000021000EC
:1080000000400020AD8F0100F58F0100F78F0100C7
:108010000000000000000000000000000000000060
:10802000000000000000000000000000F98F0100C7
:108030000000000000000000FB8F0100FD8F010028
:10804000FF8F0100FF8F01007D8D0100FF8F010078
:10805000FF8F010000000000918B0100FF8F0100E5
:10806000FF8F0100FF8F0100FF8F0100FF8F0100D4
:10807000FF8F0100D1880100FF8F0100FF8F0100F9
:10808000FF8F010009830100FF8F0100FF8F0100B6
:10809000FF8F0100FF8F0100FF8F0100FF8F0100A4
:1080A000FF8F0100FF8F01000000000000000000B2
:1080B00000000000000000000000000000000000C0
:1080C000164B002B00D1144B9D46402292029A1A67
:1080D000924600218B460F461348144A121A00F0AC
:1080E00067F80F4B002B00D098470E4B002B00D0A9
:1080F00098470020002104000D000D48002802D000
:108100000C4800E000BF00F02DF82000290000F02E
:10811000A7F800F011F8C046000008000040002059
:108120000000000000000000682000204C2100201A
:108130000000000000000000084B10B5041C002BDC
:1081400002D0002100E000BF054B1868836A002BB5
:1081500000D09847201C00F033F8C0460000000013
:1081600018A601000E4B70B500251E1C0D4CE41A1C
:10817000A410A54204D0AB00F35898470135F8E7A6
:1081800002F03CFA084B00251E1C084CE41AA4100F
:10819000A54204D0AB00F35898470135F8E770BD0D
:1081A000642000206420002064200020642000203F
:1081B000031C8218934202D019700133FAE770470A
:1081C000FEE7C0461F4B1B78012B00D070471E4BAB
:1081D0001B681B07FAD1F0221C4B1B68134018D1F7
:1081E0001B4B1B6813421AD0174B1B681B07EDD1A2
:1081F000F022164B1B681340402BE7D1144B1B6831
:108200001342E3D1C12380220121DB00D205D150EA
:10821000DCE7102B0FD10E4B1B681342E8D10D4A3F
:108220000D4B1A6080220D4B12021A60054B1B7811
:10823000012BD9D0CAE7302BDAD1054B1B6813428A
:10824000D6D1ECE7E00F00F0E40F00F0E80F00F00B
:10825000EC0F00F0DFFF07C004050040186C004081
:1082600008B500F09FF800F007FB00F015F800F0EB
:1082700051FB00F001FC30BF00F088F80028FAD074
:1082800000F076FC00F0B4F8002802D100F084F889
:10829000F1E700F04DFCF9E7802180200023C905BB
:1082A000400010B50B5001330B6080230A58DB05EA
:1082B000002AFAD0A3210122C9005A5082210020AD
:1082C000490058509A605A58002AFCD0A123002235
:1082D0000B4CDB00E2508022C12352029B00E25093
:1082E00000F0E4FA8023DB019C46A8236044DB0015
:1082F000E050012380222360024B92021A6010BDDD
:108300000010014000E100E0F8B5A023124A5B0034
:10831000D358002B1FD0114900255058104B041C76
:108320001E685F68A4197D411C605D600123936035
:108330005358094C002BFBD1A0225200A35000F04F
:10834000B5FA8023DB019C46A8230122DB006044B0
:10835000E050044B1A70F8BD001001400405000005
:108360007020002068200020054A064B0021D358C9
:10837000181C054B1A685B68801859417047C04645
:10838000001001400405000070200020014B187807
:108390007047C046682000200022014B1A707047C9
:1083A00068200020A023E7210322DB05C9005A50E2
:1083B0000B495A5004315A5038395A5068315A5082
:1083C00008495A5008495A508021084AC901995011
:1083D000802149029950E4220421D200995070472B
:1083E0003C07000074070000040700000C050000B3
:1083F000F0B55F46444656464D46F0B400245A4B0D
:108400005A4F18809B465A4B87B01C803B682833D4
:108410003B60FFF7A9FFA12302900391A0228021D6
:10842000DB004905D205D150524A534B5349D15034
:108430008021012349005450536053584D4D002B67
:10844000FBD0FFF791FF202300229946EC331E1C3E
:10845000EA5001328144AA60AC59002C05D1FFF7E3
:1084600083FF8C4201D18145F6D88622414B5200D0
:108470009A580120002A06D08022D200985801384C
:10848000431E984140003D4B5B88002B06D0D02214
:108490003B498A5892B2934200D00320882100239E
:1084A000344A49005350013313615358314D002B66
:1084B000FBD0A0248022334BE4055205E250043364
:1084C000E358DB05DB0F00D0B1E1022800D15BE10E
:1084D000032800D154E101285AD08121C9006A58EB
:1084E000012A00D162E1022A00D051E1FFF73CFFEE
:1084F000029D039EFA222B1C341C9200C01AA1413B
:10850000002300F01FFF3B684904C00B0843181A02
:108510003860FFF729FF1C4B0090019119685A68D9
:10852000491BB2410C1C151C0099019A6418554155
:108530001C605D60FFF718FF6422002300F0E2FE7C
:10854000021C0B1C201C291C00F0DCFE011C0F4827
:1085500001F026F9064B188807B03CBC90469946B6
:10856000A246AB46F0BDC046FC2000208020002083
:10857000FA20002000100040040500000021002027
:10858000001000100C050000782000204CA601000F
:108590003B68002BAADBFFF7E7FE04900591FFF78D
:1085A000E3FE80220023520280185941A44BA146C9
:1085B0009A4600900191FFF7D7FE019B8B4200D8AD
:1085C000EBE0A12104234A46C90053509D4ACC3315
:1085D000D35852461380002253465A805B46514678
:1085E00050461B888B809849984BC8500123984867
:1085F0000B50802040000A500B600A58924B002A12
:10860000FBD08620002240001A5001329A601A1CCA
:1086100011588D4B0029FBD08820002240001A50B1
:1086200001321A611A1C1158874B0029FBD0042112
:108630004846884A81508022A12049465205C00000
:108640000A50824A844999508021002249005A5098
:1086500001325A605A587C4D002AFBD0FFF784FE45
:1086600010238626984600237600AB5101338044C0
:10867000AB60AC59002C05D1FFF776FE8C4201D1DE
:108680008045F6D88622704B52009A580120002A65
:1086900006D08022D20098580138431E98414000ED
:1086A0006D4B5B88002B06D0D02266498A5892B267
:1086B000934200D0032088210023634A490053508D
:1086C000013313615358002BFCD080224946614B83
:1086D0005205CA50002800D06DE7053B5A4AFF3BBF
:1086E000D358022B00D066E7FFF73EFE049B059CA3
:1086F000C01AA141002900D18EE0A122A0210420AE
:10870000554BD200C9051B888850D0224D49FC30FA
:108710008A5851464B805B460A8052461B888B80A4
:1087200049494A4BCA500322494BCA5000230B50B7
:1087300001330B600A58444B002AFBD086200022EC
:1087400040001A5001329A601A1C11583E4B002901
:10875000FBD08821002249005A5001321A615A5830
:10876000002AFCD0A02204213A4BD205D150D023BC
:10877000344AD058384B80B2198800F003F9B5E676
:10878000364801F00DF8B1E6354801F009F8ADE6DC
:108790006958344801F004F8A8E6009B019C8C421B
:1087A00000D0A3E6834200D90BE79FE62A490426BE
:1087B0000888A121C9006650D021224C6458204964
:1087C0004880584600880C80888020482950022024
:1087D0001F496850802149006B502A606A581A4B23
:1087E000002AFBD08620002240001A5001329A60F5
:1087F0001A1C1158144B0029FBD088210022490073
:108800005A5001321A615A58002AFCD0A022042181
:10881000104BD205D15069E6134B984200D96CE752
:10882000FFF7A2FD049BC01A104B188065E7BFF349
:108830004F8F0F4A0F4BDA60BFF34F8FFEE7C046F2
:10884000F42000200010001000100040040500007B
:108850002C0500000C0500000021002034A60100BA
:1088600040A601001CA60100FFFF0000FA20002026
:108870000400FA0500ED00E00122094B094900203F
:108880005A50802189005A500139FF395850C1216E
:10889000802089005A500449800108601A6070479E
:1088A00000D000400405000000E100E00122054B7B
:1088B0001A600022044B1A70044B18884004400CC4
:1088C0007047C04600D00040842000208620002051
:1088D000802200210C4B520099500C4A117800293B
:1088E00010D101201070A122D2009A5808490A80A4
:1088F0001860A123044ADB00D2580B881B021343E3
:108900000B8070470249F4E700D00040842000202B
:10891000862000200421104B104A114899504C31F8
:10892000043A99504F39083299500E490E4A9950DD
:108930000E49043299500E490E4A99500E4904329C
:1089400099500E211032995000220C495A5004318E
:1089500058500B495A507047001000400C05000059
:10896000101004015051525324050000545556571D
:108970007E7E7E7E1C050000EAEAEAEA140500001D
:1089800034050000F0B51F2703240740FE00072729
:108990004222334B40095D781A70A5433D40354370
:1089A0002F1C9E78033A10409643064318790A40DC
:1089B0000440FF205D7092002A4D14432A4A7D40F6
:1089C00055439E70F6B27540554389090840D978E1
:1089D0001C7169405143E4B2614051435871C0B2C7
:1089E00041405143987941405143D87941405143E6
:1089F000187A41405143587A41405143987A414056
:108A00005143D87A41404A43110A1A735973110CE1
:108A1000120E9973DA731549154A80208B5005227E
:108A2000144B4000CA5000230B5001330B600A580E
:108A30000E4B002AFBD08620002240001A50013243
:108A40009A601A1C1158094B0029FBD0882100227A
:108A500049005A5001321A615A58002AFCD0F0BD20
:108A60000821002085FB0BC7930100010010004086
:108A7000040500002C050000F0B5032247462849F4
:108A800080B44B079B0F5B4213403BD000220A800F
:108A9000012B42D04A80032B3CD111208A80033223
:108AA0001426F41AA04604241027A4460024002506
:108AB00066465B00CB181C605D609C60DD601C61DD
:108AC0005D619C61DD61052E01D11C625D62D3197F
:108AD000C01BB8450CD000245A008C525A1C0128E7
:108AE00006D0520054520233022801D05B005C527F
:108AF00000230C4A13600C4A13800C4A138004BCF8
:108B00009046F0BD052294460F329046142714205B
:108B10000022CBE712200222C2E713200122BFE786
:108B2000182100204021002044210020462100205F
:108B3000F8B50B4C0B4922880B4D56000B68775B40
:108B4000C318DB1B0B6070531421501C00F0CEFBCC
:108B5000064A21801388132B01D801331380F8BDF6
:108B6000462100204021002018210020442100201F
:108B700008B5054B1988002904D0044B186800F08B
:108B80003FFA81B2081C08BD44210020402100208A
:108B9000F8B5704A00241368012B4CD06E4B1A684C
:108BA000012A54D06D4B1A68012A5ED06C4B1A68AA
:108BB000012A68D06B4B00251A68012A00D173E0A6
:108BC00023070BD0E30700D584E0A30700D590E08E
:108BD000630700D59BE0230700D56FE0002C00DB86
:108BE000F8BD3422604B995C4AB20132F8D0C9B268
:108BF000C022081C90431A18127D52B29200D65817
:108C0000002EEDD0A0230124DB059C46E023C027E5
:108C1000844082006244DB00D358BF023B40890994
:108C20001B0C2C4200D182E0022BD9D1032900D1A8
:108C300085E0B047D4E7C1214C48890041580B4238
:108C4000ACD0454B14601A680134012AAAD1C12264
:108C500046499200895802220A42A3D00021196095
:108C60003E4B14431A68012AA0D1C1223F49920009
:108C7000895804220A4299D000211960384B1443C4
:108C80001A68012A96D1C1223849920089580822CF
:108C90000A4200D18EE700211960324B14431A6852
:108CA0000025012A00D08BE71D6080231B061C4392
:108CB000A022A223D205DB00D55881E72B4A2C4BFA
:108CC000D058D158284BC0048903C00E890FDB68E7
:108CD000984783E7A223254ADB00D058D158224B7E
:108CE000C00489031B68C00E890F9847A30700D4EE
:108CF0006EE7204B1D4AD058D1581B4BC004890346
:108D00005B68C00E890F9847630700D463E7A3230D
:108D1000164ADB00D058D158134BC00489039B6816
:108D2000C00E890F9847230700D457E7C6E7032BE7
:108D300000D055E7032900D07BE78027BF02E0235E
:108D4000DB00D5580C4C2C40D450D4582743D75076
:108D5000B04745E700610040046100400861004001
:108D60000C6100407C6100408820002000600040D1
:108D70001C05000014050000FFFFFCFF842210B555
:108D8000414B5200995884B000292DD18E223E4B80
:108D900052009958002914D192223B4B5200995805
:108DA00000290CD0002199509021C9005A5802A8DE
:108DB0005A5002230370354B42601B68984704B039
:108DC00010BD0021324C99502278D2B2002AE3D053
:108DD000022A21D9032ADFD1023A2170DA605A60CF
:108DE000A022D2009950D7E700219950A322D200A7
:108DF0009958284CC9B2201C00F09AF800282AD1B2
:108E0000A268E3689B1A012BC0D1204A02AB1870FC
:108E10001268181C9047B9E71F488168C2689142E0
:108E20002DD02278022A01D001229A606B46D91DEA
:108E300000F092F8002817D1C2218022124B89003D
:108E40005A506946C8791549585002212170C121EC
:108E500089005A50A0E7012202AB1A700B4A039016
:108E60001268181C904791E70123074AD3602370CA
:108E7000032302A80370054B1B6898478CE7012267
:108E8000DA602270F4E7C04600200040C0200020D5
:108E9000D4200020D8200020C42000201C05000081
:108EA00008B5011C014800F057F808BDD820002083
:108EB00070B51A4D011C84B0281C00F039F8184C0C
:108EC000061C2378DBB2012B02D0301C04B070BD2D
:108ED0002278022A01D0134A93606B46281CD91DC0
:108EE00000F03AF800280ED1C22180220D4B8900F3
:108EF0005A506946C8790C49585002212170C12145
:108F000089005A50E1E70123064A02A8D360237082
:108F100002330370054B1B689847D6E7C420002036
:108F2000D4200020002000401C050000C0200020AC
:108F3000031C10B59C888068DA68121A04209442D9
:108F400000D210BDDA68002014401A681155DA68A2
:108F50000132DA60F5E7C04610B58468C268031CC8
:108F60000520944209D098689A8802401868825C6B
:108F700000200A709A6801329A6010BD70B5161C04
:108F80000C1C8D18002A05DD20780134FFF790FFB6
:108F9000AC42F9D1301C70BD10B50C1C201CFFF781
:108FA0007FFF0528FAD0012010BDC04603210A48E2
:108FB00002680A430260094802680A4302600849DD
:108FC000084A094B9B1A03DD043BC858D050FBDC10
:108FD00006488047064800472405004054050040E5
:108FE00054A701000020002064200020C58101005A
:108FF000C1800100FEE7FEE7FEE7FEE7FEE7FEE7D1
:10900000002243088B4274D303098B425FD3030AC7
:109010008B4244D3030B8B4228D3030C8B420DD3DA
:10902000FF22090212BA030C8B4202D31212090268
:1090300065D0030B8B4219D300E0090AC30B8B42A6
:1090400001D3CB03C01A5241830B8B4201D38B0354
:10905000C01A5241430B8B4201D34B03C01A5241F9
:10906000030B8B4201D30B03C01A5241C30A8B423C
:1090700001D3CB02C01A5241830A8B4201D38B0227
:10908000C01A5241430A8B4201D34B02C01A5241CB
:10909000030A8B4201D30B02C01A5241CDD2C3093D
:1090A0008B4201D3CB01C01A524183098B4201D3B9
:1090B0008B01C01A524143098B4201D34B01C01AA4
:1090C000524103098B4201D30B01C01A5241C3081C
:1090D0008B4201D3CB00C01A524183088B4201D38B
:1090E0008B00C01A524143088B4201D34B00C01A77
:1090F0005241411A00D20146524110467047FFE7E3
:1091000001B5002000F0FCF802BDC0460029F7D0F0
:1091100003B5FFF775FF0EBC4243891A1847C046D6
:1091200003460B437FD4002243088B4274D30309C8
:109130008B425FD3030A8B4244D3030B8B4228D369
:10914000030C8B420DD3FF22090212BA030C8B428F
:1091500002D31212090265D0030B8B4219D300E02F
:10916000090AC30B8B4201D3CB03C01A5241830BB4
:109170008B4201D38B03C01A5241430B8B4201D364
:109180004B03C01A5241030B8B4201D30B03C01A8D
:109190005241C30A8B4201D3CB02C01A5241830A07
:1091A0008B4201D38B02C01A5241430A8B4201D336
:1091B0004B02C01A5241030A8B4201D30B02C01A60
:1091C0005241CDD2C3098B4201D3CB01C01A5241C7
:1091D00083098B4201D38B01C01A524143098B4250
:1091E00001D34B01C01A524103098B4201D30B0139
:1091F000C01A5241C3088B4201D3CB00C01A52415E
:1092000083088B4201D38B00C01A524143088B4222
:1092100001D34B00C01A5241411A00D201465241BB
:10922000104670475DE0CA0F00D04942031000D3DA
:109230004042534000229C4603098B422DD3030A2F
:109240008B4212D3FC22890112BA030A8B420CD33F
:10925000890192118B4208D3890192118B4204D368
:1092600089013AD0921100E08909C3098B4201D3E8
:10927000CB01C01A524183098B4201D38B01C01A22
:10928000524143098B4201D34B01C01A5241030999
:109290008B4201D30B01C01A5241C3088B4201D348
:1092A000CB00C01A524183088B4201D38B00C01AF5
:1092B0005241D9D243088B4201D34B00C01A5241CC
:1092C000411A00D20146634652415B10104601D359
:1092D0004042002B00D54942704763465B1000D3E3
:1092E000404201B5002000F00BF802BD0029F8D083
:1092F00003B5FFF715FF0EBC4243891A1847C04655
:109300007047C046002B11D1002A0FD1002900D18F
:10931000002802D00021C943081C07B4024802A15A
:109320004018029003BDC046D9FFFFFF03B4684652
:1093300001B5029800F04CF8019B9E4602B00CBCAF
:109340007047C046F0B54F46464605042D0C2C1C10
:10935000C0B41704160C3F0C9946030C7C437543AC
:109360005F4373437D19260CAD199C46AF4203D968
:1093700080235B029846C4444B4651434343240434
:109380002E0C240C2D0466442C1959188919201C04
:109390000CBC90469946F0BDF0B583B0161C1F1C5E
:1093A0000090019100F02EF8041C0D1C221C2B1CB7
:1093B000301C391CFFF7C6FF009A019B121A8B4123
:1093C0000899201C0A604B60291C03B0F0BDC04600
:1093D000F0B5141C83B01D1C0090019100F00AF937
:1093E000221C2B1C061C0F1CFFF7ACFF009A019BD4
:1093F000121A8B410899301C0A604B60391C03B06B
:10940000F0BDC046F0B544465F4656464D46F0B402
:109410001C1C85B0002900DAA9E00F1C0021061CE5
:109420008846101C191C002C00DA97E0341C3D1CE7
:1094300082468946B94273D870D04946504600F0FA
:1094400085F98346391C301C00F080F95B46181AF8
:10945000031C8346203B9C4600D59CE00023002251
:1094600051460092019363469940019151468140D3
:10947000019B0091BB4200D983E000D17EE0009ABD
:10948000019B341C3D1CA41A9D416346002B00DA4D
:109490009AE0002600270296039701369E40039625
:1094A000012686400296002800D171E00099019AB9
:1094B000D30799464B464E081E4357080023012206
:1094C0000CE0AF4201D1A6420AD8A41BBD41241929
:1094D0006D410138A4185D41002806D0AF42F0D993
:1094E000013824196D410028F8D12022029E039FE3
:1094F0005B46524236196F4199185AD4281CC8400D
:109500002C1C5B46DC40002968DB041C8C40231CBF
:1095100059468840021CB61A9F4103E0B0428CD9DC
:109520000026002741464B1E9941002300910193DC
:10953000009A019B002554429D41331C6340181C36
:109540003B1C6B40191C009B019CC018614105B07D
:109550003CBC90469946A246AB46F0BD4346DB4331
:109560000C1C9846131C00215842A1415EE70027BD
:1095700046428F4101214942884652E7B14200D814
:109580007DE70026002702960397002800D08DE78C
:10959000029E039FC6E720215346091ACB400022B2
:1095A000191C0023009201934B4683400B43019307
:1095B0005CE75A4620239B1A2A1C9A40201C131C45
:1095C0005A46D04018439BE720260027331A00262E
:1095D000029603970127DF40039761E75B4620214E
:1095E0005D46C91A031CAC40CB40191C231C0B431D
:1095F0008EE7C046F0B545464E465746E0B4041CDB
:1096000082B00D1C914698468B4262D85FD041468D
:10961000484600F09BF8291C061C201C00F096F818
:109620002023311A5B428A46C81865D44B468340D2
:109630001F1C4B468B401E1CAF4258D855D0A41B54
:10964000BD41002800DA77E0002200230092019358
:1096500001328240019201238B40009300293CD0CB
:10966000FB079846404672087B0802430126002704
:109670000CE0AB4201D1A2420AD8A41A9D412419A0
:109680006D410139A4197D41002906D0AB42F0D9C2
:10969000013924196D410029F8D12022009801993F
:1096A00053465242001969419E183AD42F1CF74084
:1096B0005346DD40002E29DB3C1CB440231C54469D
:1096C000A7403A1C801A99410090019105E082421E
:1096D0009DD900230024009301940098019902B0C1
:1096E0001CBC90469946A246F0BDA342A7D90022D1
:1096F000002300920193B1E720224B46521AD34037
:109700001A1C43468B401F1C174392E753462024E4
:109710005646E41A3B1CB540E3401C1C2B1C23435B
:10972000CDE7524620239B1A2A1C9A40271C131C63
:109730005246D7401F43BBE720230022581A00237C
:10974000009201930132C240019284E710B50029D2
:1097500003D100F007F8203002E0081C00F002F806
:1097600010BDC0461C2101231B04984201D3000CEC
:1097700010391B0A984201D3000A08391B09984284
:1097800001D30009043902A2105C40187047C0469A
:1097900004030202010101010000000000000000BA
:1097A0000FB40B4B13B51C68002C05D0A369002B1C
:1097B00002D1201C00F050F805AB201CA168049ACF
:1097C000019300F05BF916BC08BC04B01847C04612
:1097D0006020002008B5024900F0AEF808BDC04680
:1097E0005DA30100002310B5041C03604360836087
:1097F00081814366C281036143618361191C082230
:109800005C30FEF7D5FC054B24626362044BA36217
:10981000044BE362044B236310BDC046CD9F01009F
:10982000F59F01002DA0010059A0010070B5682529
:109830004B1E5D430E1C291C743100F09FF8041E62
:1098400008D000212A1C016046600C30A0606832FC
:10985000FEF7AEFC201C70BD836913B5002B28D128
:109860008364C3640365134B134A1B6882620193CC
:10987000984201D101238361041C00F01FF860604D
:10988000201C00F01BF8A060201C00F017F8042139
:10989000E06000226068FFF7A5FFA06809210122AF
:1098A000FFF7A0FFE06812210222FFF79BFF0123D0
:1098B000A36113BD18A60100D5970100F8B51D4B93
:1098C000061C1D68AB69002B02D1281CFFF7C4FFE2
:1098D0004835AC686B68013B05D40C22A75E002FAD
:1098E00010D06834F7E72B68002B06D1301C042118
:1098F000FFF79CFF2860002801D02D68E9E70C23C2
:10990000336016E00123201C5B42E3810233A38114
:1099100067662760A760676027616761A7615C3041
:10992000391C0822FEF744FC201C6763A763A76468
:10993000E764F8BD18A60100F7B5041C071C002653
:1099400001914834002C16D06368A5680093009BF1
:10995000013B00930DD4AB89012B08D90E22AB5EDD
:10996000013304D0381C291C019B984706436835F5
:10997000EDE72468E6E7301CFEBD0000032370B568
:10998000CC1C9C430834051C0C2C01D20C2405E093
:10999000002C03DA0C2300202B6042E08C42F9D328
:1099A000204A1368101C191C002913D00A68121BC6
:1099B0000DD40B2A02D90A608B181FE08B4202D10A
:1099C0005A6802601BE04A685A600B1C17E00B1CC7
:1099D0004968E9E7144E3368002B03D1281C00F0D6
:1099E000E3FA3060281C211C00F0DEFA031C421C44
:1099F000D0D00322C61C964386420AD11C60181C94
:109A000007210B301A1D8843821A0AD051429950FF
:109A100007E0311A281C00F0C7FA431CBAD0331CE7
:109A2000ECE770BDEC200020E8200020936810B522
:109A3000013B9360002B05DA9469A34208DBCBB2AB
:109A40000A2B05D01368581C10601970C8B201E0C9
:109A500000F008FB10BDF8B5061C0F1C141CD5182F
:109A6000AC4208D02178301C3A1CFFF7DFFF0134EC
:109A7000431CF5D100E00020F8BD0000F0B59FB018
:109A8000061C0F1C02920593002804D08369002B4A
:109A900001D1FFF7E1FE794B9F4201D1776808E0E1
:109AA000774B9F4201D1B76803E0764B9F4200D1CC
:109AB000F768BB891B070AD53B69002B07D0002339
:109AC00006AD6B6120336B761033AB763DE0301C16
:109AD000391C00F033FB0028F1D001204042CAE0DD
:109AE000059A111D12680591002A7EDB0992013446
:109AF00023782E2B00D189E021786348032200F0DF
:109B0000C5FC002808D0604B0134C01A40238340B4
:109B1000181C2B68184328602178631C5B480622B8
:109B20000293297600F0B2FC002800D191E0584B56
:109B3000002B00D084E00722059B073393430833B2
:109B400005936B69039A9B186B61029C2378002B29
:109B500004D1029BE31A049311D003E0252BF8D023
:109B60000134F3E7049B301C391C029AFFF773FFA2
:109B7000431C7BD06A69049B944663446B612378E1
:109B8000002B73D00122002352426A6002A9543292
:109B9000521801342B60EB60AB601370AB65217819
:109BA0003C48052200F072FC002809D0394B0134F2
:109BB000C01A01238340181C2B6818432860EEE765
:109BC0002B68DA0604D55322202102A8121811703E
:109BD0001A0704D553222B2102A8121811702278DB
:109BE0002A2A00D17CE7099B05E05242EA60022262
:109BF00013432B607BE72278303A092A04D80A21E4
:109C00004B4301349B18F6E7099371E763782A2BDD
:109C100009D1059B02341A1D1B680592002B0DDA31
:109C200001235B420AE0002301342278303A092AFA
:109C300004D80A214B4301349B18F6E707935BE7EE
:109C400005AB0093301C291C3A1C134B00E000BFED
:109C500007E005AB0093301C291C3A1C0E4B00F0AA
:109C60008BF80390039B013300D06AE7BB895B0646
:109C700000D532E70B981FB0F0BDC046B8A6010072
:109C8000D8A60100F8A601001EA7010022A7010026
:109C90000000000018A70100579A0100F7B5171C33
:109CA00001930A698B6800900C1C934200DA131C24
:109CB000221C3B6043321278002A01D001333B6002
:109CC00023689B0602D53B6802333B600625236868
:109CD0001D401ED0231C43331B785A1E934122681B
:109CE00092061CD53020E1184031C870211C5A1C46
:109CF00045310978A21840320233D1700FE0221C9E
:109D00000123009801991932089EB047431C0ED0D8
:109D10000135E3683A689B1A9D42F0DBDAE7221CC2
:109D2000009801994332089DA847431C02D10120A5
:109D3000404220E006232068E1683A68034000259D
:109D4000042B03D18D1AEB43DB171D40A368226956
:109D5000934201DD9B1AED180027AF420ADA221C5C
:109D60000123009801991A32089EB047431CDED0A7
:109D70000137F2E70020FEBDF0B58BB006920A1C59
:109D800043320793059004920A7E0C1C109B6E2AA6
:109D900000D1A8E011D8632A22D009D8002A00D126
:109DA000B2E0582A00D0C2E045310A707C4A4FE048
:109DB000642A1DD0692A1BD0B9E0732A00D1A7E01C
:109DC00009D86F2A29D0702A00D0B0E02022096873
:109DD0000A43226037E0752A1FD0782A33D0A6E0E4
:109DE0000E1C1A684236111D196013683370A1E009
:109DF00021681A68080606D4490604D5111D1960A1
:109E00000023D55E02E0111D19601568002D3BDAB4
:109E10002D23049A6D42137036E021681A680806F3
:109E200006D4490604D51568111D1960ADB202E0CB
:109E3000111D196015685A4B227E03930A276F2A59
:109E40001DD108271BE0221C782145321170554A8C
:109E500019680392081D226818600D68100602D464
:109E6000500600D5ADB2D30702D520231A43226095
:109E70001027002D03D1202322689A432260231C3F
:109E8000002243331A7002E00A27454B03936368AC
:109E9000A360002B03DB0422216891432160002D85
:109EA00002D1049E002B0ED0049E281C391CFFF703
:109EB0002DF9039B013E5B5C281C3370391CFFF7B6
:109EC0009FF8051EF1D1082F09D12368DB0706D5BD
:109ED00063682269934202DC3023013E3370049BA5
:109EE0009B1B23612BE009681A68080607D4490602
:109EF00005D5111D19601368A28A1A8004E0111D8E
:109F00001960136862691A600023049E236116E0D9
:109F10001A68111D196016680021301C626800F073
:109F2000B5FA002801D0801B6060636803E0261C3E
:109F300042363270012323610023049A1370079B79
:109F400005980093211C069B09AAFFF7A7FE431C56
:109F500002D10120404221E0236905980699321C74
:109F6000079DA847431CF4D023689B0705D4099B91
:109F7000E068984212DA181C10E00025E368099A9C
:109F80009B1A9D42F3DA221C012305980699193287
:109F9000079EB047431CDCD00135EFE70BB0F0BDA6
:109FA00029A701003AA7010038B50023064C051C7B
:109FB000081C236000F014FB431C03D12368002B12
:109FC00000D02B6038BDC0464821002038B50C1C9D
:109FD0000E25495F00F0ACFA002803DB636D1B1807
:109FE000636503E0A289024B1340A38138BDC046DC
:109FF000FFEFFFFFF8B51E1C8B89051C0C1C171CFE
:10A00000DB0505D50E23C95E0022022300F0D2F93C
:10A01000A289054B281C1340A3813A1C0E23E15E44
:10A02000331C00F077F8F8BDFFEFFFFF38B50C1CCC
:10A030000E25495F00F0BEF9A389421C03D1054AF1
:10A040001340A38104E0802252011343A381606581
:10A0500038BDC046FFEFFFFF08B50E23C95E00F014
:10A06000E1F808BD70B5051C0E1C141C002804D0B6
:10A070008369002B01D1FFF7EFFB234B9C4201D1F9
:10A080006C6808E0214B9C4201D1AC6803E0204B96
:10A090009C4200D1EC68A369A360A3891B070AD581
:10A0A0002369002B07D023682269F6B2981A6369E6
:10A0B00098420FDB08E0281C211C00F03FF8002824
:10A0C000F1D0012040421DE0281C211C00F046F97F
:10A0D0000028F6D1A3680130013BA36023685A1C15
:10A0E00022601E706369984205D0A389301CDB078B
:10A0F00008D50A2E06D1281C211C00F02FF90028B3
:10A10000DFD1301C70BDC046B8A60100D8A6010042
:10A11000F8A6010038B5051C0020074C2060081C7B
:10A12000111C1A1CFEF72AFF431C03D12368002BC5
:10A1300000D02B6038BDC04648210020354B70B59B
:10A140001D68061C0C1C002D05D0AB69002B02D12C
:10A15000281CFFF781FB304B9C4201D16C6808E062
:10A160002E4B9C4201D1AC6803E02D4B9C4200D1A8
:10A17000EC68A3899AB2110723D4D10607D4092227
:10A180000120326037321343A381404240E053073D
:10A1900013D5616B002908D0231C4433994202D0A7
:10A1A000301C00F07FF9002363632422A3899343CA
:10A1B000A38100236360236923600822A3891343DA
:10A1C000A3812369002B0BD1A023A2899B001340FC
:10A1D00080229200934203D0301C211C00F0FEF834
:10A1E0000123A289134005D00023A36063695B4269
:10A1F000A36103E0910700D46369A3600020236991
:10A20000834205D1130603D540231A43A2810138A6
:10A2100070BDC04660200020B8A60100D8A601008D
:10A22000F8A6010038B50023064C051C081C236065
:10A2300000F0B6F9431C03D12368002B00D02B603B
:10A2400038BDC04648210020F7B58A89051C0C1C82
:10A2500013075ED44B68002B02DC0B6C002B1ADD5D
:10A26000E76A002F17D000232E682B6080235B0144
:10A270001A4001D0626D15E0281C216A0123B847FD
:10A28000021C431C0ED12B68002B0BD01D2B01D0C0
:10A29000162B02D12E6000205EE04021A3890B43E3
:10A2A000A38159E0A3895B0706D56368D21A636B63
:10A2B000002B01D0236CD21A0023281C216AE76AE4
:10A2C000B847A389421C06D12A68002A03D01D2A58
:10A2D00001D0162A19D10022626022692260DB04B3
:10A2E00005D5431C02D12B68002B00D16065616B42
:10A2F0002E600029CFD0231C4433994202D0281C61
:10A3000000F0D0F80020606326E040221343A381D0
:10A3100022E00F69002FBED00B680F60DB1B01939A
:10A320000023920700D14B69A360019B002BB2DD93
:10A33000281C216A3A1C019BA66AB047002806DC4B
:10A3400040220120A38940421343A38104E0019BE2
:10A350003F181B1A0193E8E7FEBD000038B50B69F2
:10A36000051C0C1C002B01D100201CE0002804D08F
:10A370008369002B01D1FFF76FFA0B4B9C4201D18F
:10A380006C6808E0094B9C4201D1AC6803E0084BC3
:10A390009C4200D1EC680C22A35E002BE4D0281C68
:10A3A000211CFFF751FF38BDB8A60100D8A6010057
:10A3B000F8A6010038B5051C0020074C2060081CD9
:10A3C000111C1A1C00F004F9431C03D12368002B54
:10A3D00000D02B6038BDC04648210020F0B58B89E5
:10A3E00091B09B0706D50B1C47330B600B61012313
:10A3F0004B6145E00C1C0E23C95E061C002904DAE3
:10A400008023A5891D4010D10CE001AA00F0A4F81A
:10A410000028F5DBF023029D1B021D40194BED18AF
:10A420006B425D418027FF0001E000254027301C82
:10A43000391CFFF7A3FA00280CD1A3899A051FD471
:10A4400002221343A381231C47332360236101238A
:10A45000636115E080220C4BB362A3892060134333
:10A46000A38120616761002D0AD00E23E15E301CBC
:10A4700000F084F8002803D00122A3891343A381AC
:10A4800011B0F0BD00E0FFFFD5970100C9B28218FE
:10A49000904204D003788B4202D00130F8E70020CC
:10A4A0007047000030B500293ED004390B68002BFE
:10A4B00000DAC9181D4A1368141C002B02D14B6026
:10A4C000116031E099420DD208680A189A4203D10E
:10A4D0001368C3180B6053684B60216024E08A4204
:10A4E00003D8131C5A68002AF9D11D685C198C42E4
:10A4F0000BD10968691858181960904214D1106876
:10A500005268091819605A600EE08C4202D90C2377
:10A51000036009E008680C18944203D1146852687B
:10A52000001908604A60596030BDC046EC20002028
:10A5300038B5051C0020074C2060081C111C1A1C93
:10A54000FEF72AFD431C03D12368002B00D02B60AB
:10A5500038BDC0464821002038B50023064C051CF4
:10A56000081C111C236000F023F8431C03D123684E
:10A57000002B00D02B6038BD4821002038B50023C7
:10A58000064C051C081C236000F01AF8431C03D17C
:10A590002368002B00D02B6038BDC0464821002026
:10A5A00058220120014B40421A6070474821002088
:10A5B00058220120014B40421A6070474821002078
:10A5C0005822024B00201A607047C04648210020E4
:10A5D00058220120014B40421A6070474821002058
:10A5E000044A1368002B03D018181060181C704719
:10A5F000014BF9E7F020002050210020F8B5C046BB
:10A60000F8BC08BC9E467047F8B5C046F8BC08BC0C
:10A610009E4670474300000000200020554E4B4EE0
:10A620004F574E204D5347205459504520256C78A4
:10A630000A00000057524F4E4720414444520A003E
:10A64000435243204641494C0A0000004443202520
:10A650006C750A000D3030303030312E4E412E38BE
:10A660003E5B253033785D2530336C782E312832CF
:10A670002E30332E253034787C352E30362E303047
:10A6800030377C382E30392E30303130292B313173
:10A690003131313131310A00554D3A20256C780A7B
:10A6A0000000000054494D454F55540A0000000079
:10A6B0004352430A000000000000000000000000B8
:10A6C000000000000000000000000000000000008A
:10A6D000000000000000000000000000000000007A
:10A6E000000000000000000000000000000000006A
:10A6F000000000000000000000000000000000005A
:10A700000000000000000000000000000000000049
:10A710000000000000000000232D302B2000686C9A
:10A720004C00656667454647003031323334353674
:10A7300037383941424344454600303132333435AD
:0CA74000363738396162636465660000DA
:08A74C0074D9FF7F0100000039
:10A7540000000000B8A60100D8A60100F8A6010078
:10A7640000000000000000000000000000000000E5
:10A7740014A601000000000000000000000000001A
:10A7840000000000000000000000000000000000C5
:10A7940000000000000000000000000000000000B5
:10A7A40000000000000000000000000000000000A5
:04A7B4000020002061
:0400000310008FADAD
:00000001FF
