:020000021000EC
:108000000040002071920100B9920100BB92010072
:108010000000000000000000000000000000000060
:10802000000000000000000000000000BD92010000
:108030000000000000000000BF920100C19201009A
:10804000C3920100C3920100698D0100C392010037
:10805000C3920100000000003D8A0100C3920100AC
:10806000C3920100C3920100C3920100C3920100B8
:10807000C3920100DD850100C3920100C39201009B
:10808000C3920100ED820100C3920100C39201007E
:10809000C3920100C3920100C3920100C392010088
:1080A000C3920100C3920100000000000000000024
:1080B00000000000000000000000000000000000C0
:1080C000164B002B00D1144B9D46402292029A1A67
:1080D000924600218B460F461348144A121A00F0AC
:1080E00067F80F4B002B00D098470E4B002B00D0A9
:1080F00098470020002104000D000D48002802D000
:108100000C4800E000BF00F02DF82000290000F02E
:10811000A7F800F011F8C046000008000040002059
:108120000000000000000000682000203422002031
:108130000000000000000000084B10B5041C002BDC
:1081400002D0002100E000BF054B1868836A002BB5
:1081500000D09847201C00F033F8C0460000000013
:1081600074A201000E4B70B500251E1C0D4CE41AC4
:10817000A410A54204D0AB00F35898470135F8E7A6
:1081800002F06AF8084B00251E1C084CE41AA410E3
:10819000A54204D0AB00F35898470135F8E770BD0D
:1081A000682000206820002068200020682000202F
:1081B000031C8218934202D019700133FAE770470A
:1081C000FEE7C0461F4B1B78012B00D070471E4BAB
:1081D0001B681B07FAD1F0221C4B1B68134018D1F7
:1081E0001B4B1B6813421AD0174B1B681B07EDD1A2
:1081F000F022164B1B681340402BE7D1144B1B6831
:108200001342E3D1C12380220121DB00D205D150EA
:10821000DCE7102B0FD10E4B1B681342E8D10D4A3F
:108220000D4B1A6080220D4B12021A60054B1B7811
:10823000012BD9D0CAE7302BDAD1054B1B6813428A
:10824000D6D1ECE7E00F00F0E40F00F0E80F00F00B
:10825000EC0F00F0DFFF07C004050040186C004081
:1082600008B500F08DF800F08DF900F007F800F087
:10827000D7F900F013FA00F0EFF8FCE78021802036
:108280000023C905400010B50B5001330B6080235B
:108290000A58DB05002AFAD0A3210122C9005A504E
:1082A00082210020490058509A605A58002AFCD078
:1082B000A12300220B4CDB00E2508022C12352029A
:1082C0009B00E25000F078F98023DB019C46A82354
:1082D0006044DB00E050012380222360024B9202C5
:1082E0001A6010BD0010014000E100E0F8B5A023C5
:1082F0000F4C5B00E258002A18D00E4A0021A55806
:108300000D4A281C16685768012536184F4116601B
:108310005760A560E15000F04FF98023DB019C46D7
:10832000A8236044DB00E050044B1D70F8BDC0463C
:10833000001001400405000070200020682000208B
:10834000054A064B0021D358181C054B1A685B6878
:10835000801859417047C0460010014004050000D4
:1083600070200020BFF34F8F024A034BDA60BFF347
:108370004F8FFEE70400FA0500ED00E07047C046AD
:10838000F0B5E722A0240323E405D200A350294A34
:108390008027A3500432A350383AA3506832A35028
:1083A000254AFF01A350254A8DB0A3508022244BBB
:1083B0005202E750E25000F0CDF9224D0422291C70
:1083C00003A801F011F8204E03A9321C082000F088
:1083D0005FFA0820012100F0D5FA291C042204A824
:1083E00001F002F8321C04A90C2000F051FA0C2014
:1083F000012100F0C7FA05A8031C291D64C964C344
:108400000A2300226B441A80104A0093089201222A
:1084100009920F4A08A90A92802252000B92032364
:108420000C4A00F033FD002802D0A123DB00E75006
:108430000DB0F0BD3C070000740700000407000009
:108440000C05000078A2010065830100782000205F
:108450007C2000207D8301008021A123A022F0B593
:1084600047464905DB00D20580B43E4ED1503E4A16
:108470003E4B8021D65000234900535001335360B6
:108480005358394C002BFBD0FFF75AFF8023862727
:108490005B0298460023251C7F00E3510133804492
:1084A000A360EC59002C05D1FFF74AFF8C4201D1A3
:1084B0008045F6D886222C4B52009A580120002A7B
:1084C00006D08022D20098580138431E98414000BF
:1084D0007488002C06D080235B051B6E9BB29C42E7
:1084E00000D00320882100231F4A49005350013344
:1084F00013615358002BFCD08021A0221C4B49054E
:10850000D205D150012821D0022805D1194800F008
:1085100075FF04BC9046F0BD053B134AFF3BD358A2
:10852000002B17D0022BF4D9032B13D18020B18854
:10853000000200F0C7FE358823052D052D0D82B2FF
:108540001B0D291C0C4800F059FFE2E70B4800F016
:1085500055FFDEE78123044ADB00D158084800F0CC
:108560004DFFD6E7F8210020001000400405000070
:108570000C05000014A30100B8A2010008A301002B
:10858000FCA201000122094B094900205A50802118
:1085900089005A500139FF395850C1218020890083
:1085A0005A500449800108601A60704700D00040AA
:1085B0000405000000E100E00122054B1A600022E2
:1085C000044B1A70044B18884004400C7047C04696
:1085D00000D000407C2100207E210020802200214C
:1085E0000C4B520099500C4A1178002910D10120EF
:1085F0001070A122D2009A5808490A801860A1235D
:10860000044ADB00D2580B881B0213430B807047CF
:108610000249F4E700D000407C2100207E210020A8
:10862000EC21134B134A10B599500021043AA220B3
:1086300099500122C0001A500F4C10481C50104C89
:1086400010481C50104C04301C500E2410301C508C
:108650000E481950A3210E48C90058500D495A50D0
:10866000FF210D4A99500821043AFF31995010BD5D
:10867000001000400C050000C0C1C2C3240500006A
:10868000674523011C050000EFCDAB8914050000F0
:1086900006060401340500003C050000F0B5032285
:1086A0004746284980B44B079B0F5B4213403BD0A1
:1086B00000220A80012B42D04A80032B3CD111209A
:1086C0008A8003321426F41AA04604241027A446F4
:1086D0000024002566465B00CB181C605D609C6032
:1086E000DD601C615D619C61DD61052E01D11C6254
:1086F0005D62D319C01BB8450CD000245A008C52BF
:108700005A1C012806D0520054520233022801D0CC
:108710005B005C5200230C4A13600C4A13800C4A25
:10872000138004BC9046F0BD052294460F3290465B
:10873000142714200022CBE712200222C2E71320C4
:108740000122BFE700220020282200202C22002046
:108750002E22002038B53525114C0820635D002BF2
:1087600000D038BD3422013B6361A361E361236221
:108770006362A362E362236302380121A35423608E
:108780006360A360E360236100F04EFA8021C1239F
:10879000044A9B000906D150012300206355E0E7FD
:1087A00080210020006000403523034AD05C431E36
:1087B0009841C0B27047C04680210020F0B5142512
:1087C0002F4B021C1C1865570820013500D0F0BD46
:1087D0008878002833D0186801304AD058680130B2
:1087E00049D09868013048D0DC6804200326013461
:1087F000EDD1981806750020A227B6009851214B9C
:10880000FF00F318DE59204D0C783540802648785B
:10881000DD51DD5976030005AC4630402504C02605
:108820002C1CB60234402043F824051C64011002BD
:108830000440281C204364462043D85101E0FE2315
:108840002375131CA0240320C133FF339B00E405D0
:1088500018514B78012B05D0012090400B4BE05074
:108860000020B4E793401A1CA123DB00E250002053
:10887000ADE70026BDE70126BBE70226B9E7C04603
:108880008021002000600040FFE0ECFF0C050000AC
:10889000F0B5394B08241D182E7D7F2E01D8201CE1
:1088A000F0BDCE78002E33D01C68013460D05C68F7
:1088B0000125013409D09C680225013405D0DC680B
:1088C0000135013401D00424E9E71F18ECB23C75EE
:1088D000AF00DA51002E02D15D192C3528718A784B
:1088E000002A1DD1021CA0264D78C132FF32AD00F6
:1088F0009200F6059551CA78002A1DD164B21B1961
:108900000A782C33197992010A431A710024C6E7B8
:108910001C690134D7D104242C751A61251CDBE7AE
:10892000A025ED05AC46E026022782006244F60051
:108930009559BD439551DEE764B2104BA400E3188E
:10894000A224E4000A781D590D490002294019515A
:10895000F82149010840061CC0211004021C301CEB
:1089600089021D590A40104328431851002496E7F4
:1089700000242C751A60B2E78021002000600040BE
:10898000FFE0FCFFF0B5254C25182A7D53B2032BE0
:1089900018DDE3182C331B799B09032B32D0012BF4
:1089A00039D0C025AD02A023DB059C46E023800022
:1089B0006044DB00C4581A492140C150C2582A43C0
:1089C000C250F0BD032AFCD81648A22784460126CF
:1089D0009A006244FF00D0593043D0511A1C6046BF
:1089E00000274032920092B217500029E9D0142299
:1089F000AA5692001259002AE3D0C1229E4092004A
:108A00008650DEE7A223A022DB00D205D258012344
:108A100083401A42C5D18025AD02C4E780210020E1
:108A2000FFFFFCFF00600040A223A022DB00D20574
:108A3000D358C340181C012318407047F8B5704A3A
:108A400000241368012B4CD06E4B1A68012A54D0B5
:108A50006D4B1A68012A5ED06C4B1A68012A68D0E7
:108A60006B4B00251A68012A00D173E023070BD055
:108A7000E30700D584E0A30700D590E0630700D5A5
:108A80009BE0230700D56FE0002C00DBF8BD34220B
:108A9000604B995C4AB20132F8D0C9B2C022081CBE
:108AA00090431A18127D52B29200D658002EEDD083
:108AB000A0230124DB059C46E023C02784408200DC
:108AC0006244DB00D358BF023B4089091B0C2C4297
:108AD00000D182E0022BD9D1032900D185E0B04733
:108AE000D4E7C1214C48890041580B42ACD0454BDA
:108AF00014601A680134012AAAD1C12246499200A1
:108B0000895802220A42A3D0002119603E4B144327
:108B10001A68012AA0D1C1223F4992008958042233
:108B20000A4299D000211960384B14431A68012A6F
:108B300096D1C12238499200895808220A4200D1B0
:108B40008EE700211960324B14431A680025012A70
:108B500000D08BE71D6080231B061C43A022A223AC
:108B6000D205DB00D55881E72B4A2C4BD058D15881
:108B7000284BC0048903C00E890FDB68984783E740
:108B8000A223254ADB00D058D158224BC0048903C8
:108B90001B68C00E890F9847A30700D46EE7204BCF
:108BA0001D4AD058D1581B4BC00489035B68C00EC6
:108BB000890F9847630700D463E7A323164ADB00B5
:108BC000D058D158134BC00489039B68C00E890F3D
:108BD0009847230700D457E7C6E7032B00D055E793
:108BE000032900D07BE78027BF02E023DB00D558B4
:108BF0000C4C2C40D450D4582743D750B04745E7AD
:108C00000061004004610040086100400C610040C8
:108C10007C61004080210020006000401C050000B5
:108C200014050000FFFFFCFFF0B5002820DBFF2744
:108C30001B4B03229C463B1C8408C026C0B202404A
:108C4000D2009340A4006444B600A5599D438B0113
:108C50003B409340191C2943A1511F2318401E3B40
:108C60008340C022181C0E4B520098501860F0BD73
:108C7000FF260C4A03249446321C0F23C0B2044042
:108C8000E400A2400340083B9B089B006344DD696D
:108C900095438A013240A240111C2943D961DCE787
:108CA00000E100E000ED00E030B585B0FFF7BCFE6C
:108CB00000282FD1274C2378DBB2002B05D0032BC3
:108CC00001D10223237005B030BDA0220421224B24
:108CD000D2009950012221481A608568C1688D42EE
:108CE00022D02178022900D09A606B46D91D00F06D
:108CF00095FA002823D1C2218022174B89005A50AF
:108D00006946C8791649585002212170C12189004D
:108D10005A50D8E70F4A1378DBB2012B06D0022B4A
:108D2000D1D103231370CEE72270CCE7002111705C
:108D3000094AD3605360A023DB00D150C3E701236D
:108D4000054A02A8D360237002330370054B1B68E9
:108D50009847B8E7CC21002000200040BC2100202B
:108D60001C050000B8210020842210B5414B5200A0
:108D7000995884B000292DD18E223E4B520099582B
:108D8000002914D192223B4B5200995800290CD053
:108D9000002199509021C9005A5802A85A50022324
:108DA0000370354B42601B68984704B010BD00212A
:108DB000324C99502278D2B2002AE3D0022A21D92B
:108DC000032ADFD1023A2170DA605A60A022D20071
:108DD0009950D7E700219950A322D2009958284CE6
:108DE000C9B2201C00F006FA00282AD1A268E36864
:108DF0009B1A012BC0D1204A02AB18701268181CB4
:108E00009047B9E71F488168C26891422DD0227807
:108E1000022A01D001229A606B46D91D00F0FEF9AA
:108E2000002817D1C2218022124B89005A5069466E
:108E3000C8791549585002212170C12189005A5022
:108E4000A0E7012202AB1A700B4A03901268181CAB
:108E5000904791E70123074AD3602370032302A8B8
:108E60000370054B1B6898478CE70122DA6022707B
:108E7000F4E7C04600200040B8210020CC210020AB
:108E8000D0210020BC2100201C050000F0B55F4669
:108E900056464D464446F0B400279A4E89B0377086
:108EA000994F3A600722002909D08A880D1C041CBA
:108EB00009689648019300F089F9021E07D0101C3A
:108EC00009B03CBC90469946A246AB46F0BD904BDB
:108ED000AA89A968181C984600F078F9021EEED1FC
:108EE000A02203216378D205C133FF339B00995040
:108EF0002378C133FF339B0098506178854B864AB5
:108F000099502178854A9950A168854A995062798B
:108F1000002A48D00E21834A99502379022B5FD032
:108F2000012B43D0A02204217A4BD2009950002279
:108F30000531FF315A507B4814315A5019580132CB
:108F40009143195001216438494219500830195091
:108F50009A601A603270129B1B88002B05D1724AEE
:108F60001378591C1170129A13800121C222694B87
:108F7000494292009950A121043A89009950C02396
:108F800004216A4A5B00D150019BC0209D01FF2350
:108F9000800014581D40664B2D0423401D4315507E
:108FA000116000228BE75F495A50B6E7A0210420E8
:108FB000584AC900505000210530FF30115014307C
:108FC00011505848115819431150A221E078C90096
:108FD0005050A07808395050936013603370BAE74E
:108FE000FFF7E2FB002804D1FFF7B4FB021E00D01C
:108FF00065E700239946002304A90B804B468B703C
:1090000001234B70A0789A46FFF7D8FB021E00D0D0
:1090100055E7404B01229B46A22359465242DB00B2
:10902000CA50A278083BCA503E4A8B5851460B435F
:1090300059468B50032305A90B704B464B708B7020
:10904000CB703C4AE078FFF723FC051C021E00D0E1
:1090500035E7E0780121FFF795FCE078FFF7E4FCC5
:109060003378DBB2002807D0012B0DD0022B00D0C3
:1090700071E7032333706EE7002B0ED0032B00D073
:1090800069E70223337066E74A4632705A46D36076
:109090005360A023DB00D5505DE7A023042259468E
:1090A000DB00CA50524643460A609A68DB689A421F
:1090B0001AD03378022B01D052468A6002ABDC1DF5
:1090C0004046211C00F0AAF8002810D1C2218022BD
:1090D000104B89005A50207817495850022131709E
:1090E000C12189005A5036E75346337033E70123D4
:1090F000084A06A8D3603370023303703B68984770
:1091000029E7C046CC210020B8210020D021002032
:10911000BC210020002000400C05000014050000C8
:10912000240500006C0500006420002000E100E040
:10913000FFFF00FFA98C01001C05000008B5011C01
:10914000014800F06BF808BDD021002070B51A4D21
:10915000011C84B0281C00F04DF8184C061C237824
:10916000DBB2012B02D0301C04B070BD2278022A81
:1091700001D0134A93606B46281CD91D00F04EF8AD
:1091800000280ED1C22180220D4B89005A50694619
:10919000C8790C49585002212170C12189005A50C8
:1091A000E1E70123064A02A8D3602370023303706B
:1091B000054B1B689847D6E7BC210020CC21002036
:1091C000002000401C050000B821002010B5002937
:1091D0000DD00923002A01D1181C10BD541E2240B5
:1091E000FAD1826001608480C2600023F4E70E231C
:1091F000F2E7C046031C10B59C888068DA68121A32
:109200000420944200D210BDDA68002014401A688D
:109210001155DA680132DA60F5E7C04610B58468A6
:10922000C268031C0520944209D098689A880240BD
:109230001868825C00200A709A6801329A6010BD3A
:1092400070B5161C0C1C8D18002A05DD2078013421
:10925000FFF77CFFAC42F9D1301C70BD10B50C1C7F
:10926000201CFFF76BFF0528FAD0012010BDC04677
:1092700003210A4802680A430260094802680A4357
:1092800002600849084A094B9B1A03DD043BC85891
:10929000D050FBDC064880470648004724050040C4
:1092A00054050040B8A301000020002068200020E1
:1092B000C5810100C1800100FEE7FEE7FEE7FEE791
:1092C000FEE7FEE7002243088B4274D303098B427A
:1092D0005FD3030A8B4244D3030B8B4228D3030C86
:1092E0008B420DD3FF22090212BA030C8B4202D328
:1092F0001212090265D0030B8B4219D300E0090A50
:10930000C30B8B4201D3CB03C01A5241830B8B4258
:1093100001D38B03C01A5241430B8B4201D34B0341
:10932000C01A5241030B8B4201D30B03C01A5241A6
:10933000C30A8B4201D3CB02C01A5241830A8B422B
:1093400001D38B02C01A5241430A8B4201D34B0214
:10935000C01A5241030A8B4201D30B02C01A524178
:10936000CDD2C3098B4201D3CB01C01A524183092C
:109370008B4201D38B01C01A524143098B4201D366
:109380004B01C01A524103098B4201D30B01C01A91
:109390005241C3088B4201D3CB00C01A524183080B
:1093A0008B4201D38B00C01A524143088B4201D338
:1093B0004B00C01A5241411A00D201465241104698
:1093C0007047FFE701B5002000F00CF802BDC04671
:1093D0000029F7D003B5FFF775FF0EBC4243891A89
:1093E0001847C0467047C046002310B5934203D0CB
:1093F000CC5CC4540133F9E710BD00000FB40B4B33
:1094000013B51C68002C05D0A369002B02D1201CC9
:1094100000F050F805AB201CA168049A019300F0FD
:109420005BF916BC08BC04B01847C0466020002099
:1094300008B5024900F0AEF808BDC046B99F01006A
:10944000002310B5041C0360436083608181436680
:10945000C281036143618361191C08225C30FEF7FD
:10946000A7FE054B24626362044BA362044BE362D4
:10947000044B236310BDC046299C0100519C010090
:10948000899C0100B59C010070B568254B1E5D43A9
:109490000E1C291C743100F09FF8041E08D0002116
:1094A0002A1C016046600C30A0606832FEF780FE26
:1094B000201C70BD836913B5002B28D18364C3645D
:1094C0000365134B134A1B6882620193984201D1D2
:1094D00001238361041C00F01FF86060201C00F071
:1094E0001BF8A060201C00F017F80421E0600022A7
:1094F0006068FFF7A5FFA06809210122FFF7A0FF20
:10950000E06812210222FFF79BFF0123A36113BD34
:1095100074A2010031940100F8B51D4B061C1D68B2
:10952000AB69002B02D1281CFFF7C4FF4835AC689B
:109530006B68013B05D40C22A75E002F10D0683465
:10954000F7E72B68002B06D1301C0421FFF79CFFA6
:109550002860002801D02D68E9E70C23336016E06D
:109560000123201C5B42E3810233A38167662760ED
:10957000A760676027616761A7615C30391C0822BA
:10958000FEF716FE201C6763A763A764E764F8BDB7
:1095900074A20100F7B5041C071C00260191483491
:1095A000002C16D06368A5680093009B013B0093D4
:1095B0000DD4AB89012B08D90E22AB5E013304D048
:1095C000381C291C019B984706436835EDE7246841
:1095D000E6E7301CFEBD0000032370B5CC1C9C43A5
:1095E0000834051C0C2C01D20C2405E0002C03DAF5
:1095F0000C2300202B6042E08C42F9D3204A1368F0
:10960000101C191C002913D00A68121B0DD40B2A38
:1096100002D90A608B181FE08B4202D15A6802609F
:109620001BE04A685A600B1C17E00B1C4968E9E70D
:10963000144E3368002B03D1281C00F0E3FA30608D
:10964000281C211C00F0DEFA031C421CD0D003228F
:10965000C61C964386420AD11C60181C07210B3099
:109660001A1D8843821A0AD05142995007E0311AD4
:10967000281C00F0C7FA431CBAD0331CECE770BDBD
:10968000E4210020E0210020936810B5013B9360A5
:10969000002B05DA9469A34208DBCBB20A2B05D074
:1096A0001368581C10601970C8B201E000F008FB84
:1096B00010BDF8B5061C0F1C141CD518AC4208D000
:1096C0002178301C3A1CFFF7DFFF0134431CF5D131
:1096D00000E00020F8BD0000F0B59FB0061C0F1C94
:1096E00002920593002804D08369002B01D1FFF773
:1096F000E1FE794B9F4201D1776808E0774B9F42AA
:1097000001D1B76803E0764B9F4200D1F768BB896F
:109710001B070AD53B69002B07D0002306AD6B6100
:1097200020336B761033AB763DE0301C391C00F0F3
:1097300033FB0028F1D001204042CAE0059A111DF8
:1097400012680591002A7EDB0992013423782E2BC2
:1097500000D189E021786348032200F0C5FC00288D
:1097600008D0604B0134C01A40238340181C2B687A
:10977000184328602178631C5B48062202932976EF
:1097800000F0B2FC002800D191E0584B002B00D033
:1097900084E00722059B07339343083305936B69E5
:1097A000039A9B186B61029C2378002B04D1029BC7
:1097B000E31A049311D003E0252BF8D00134F3E72A
:1097C000049B301C391C029AFFF773FF431C7BD0AB
:1097D0006A69049B944663446B612378002B73D0C1
:1097E0000122002352426A6002A954325218013405
:1097F0002B60EB60AB601370AB6521783C480522B1
:1098000000F072FC002809D0394B0134C01A012342
:109810008340181C2B6818432860EEE72B68DA0693
:1098200004D55322202102A8121811701A0704D55A
:1098300053222B2102A81218117022782A2A00D153
:109840007CE7099B05E05242EA60022213432B6049
:109850007BE72278303A092A04D80A214B430134A5
:109860009B18F6E7099371E763782A2B09D1059BCA
:1098700002341A1D1B680592002B0DDA01235B428E
:109880000AE0002301342278303A092A04D80A2158
:109890004B4301349B18F6E707935BE705AB009356
:1098A000301C291C3A1C134B00E000BF07E005AB3D
:1098B0000093301C291C3A1C0E4B00F08BF80390CF
:1098C000039B013300D06AE7BB895B0600D532E712
:1098D0000B981FB0F0BDC0461CA301003CA30100C3
:1098E0005CA3010082A3010086A301000000000028
:1098F0007CA30100B3960100F7B5171C01930A6918
:109900008B6800900C1C934200DA131C221C3B60F5
:1099100043321278002A01D001333B6023689B0652
:1099200002D53B6802333B60062523681D401ED0EC
:10993000231C43331B785A1E9341226892061CD580
:109940003020E1184031C870211C5A1C453109787B
:10995000A21840320233D1700FE0221C012300987C
:1099600001991932089EB047431C0ED00135E368B7
:109970003A689B1A9D42F0DBDAE7221C00980199B5
:109980004332089DA847431C02D10120404220E0F9
:1099900006232068E1683A6803400025042B03D1C0
:1099A0008D1AEB43DB171D40A3682269934201DD4A
:1099B0009B1AED180027AF420ADA221C01230098F7
:1099C00001991A32089EB047431CDED00137F2E7F6
:1099D0000020FEBDF0B58BB006920A1C43320793FF
:1099E000059004920A7E0C1C109B6E2A00D1A8E000
:1099F00011D8632A22D009D8002A00D1B2E0582A0F
:109A000000D0C2E045310A707C4A4FE0642A1DD084
:109A1000692A1BD0B9E0732A00D1A7E009D86F2AC0
:109A200029D0702A00D0B0E0202209680A432260C1
:109A300037E0752A1FD0782A33D0A6E00E1C1A68AA
:109A40004236111D196013683370A1E021681A684D
:109A5000080606D4490604D5111D19600023D55EF9
:109A600002E0111D19601568002D3BDA2D23049AC0
:109A70006D42137036E021681A68080606D449065C
:109A800004D51568111D1960ADB202E0111D1960F1
:109A900015685A4B227E03930A276F2A1DD1082787
:109AA0001BE0221C782145321170554A1968039237
:109AB000081D226818600D68100602D4500600D5F3
:109AC000ADB2D30702D520231A4322601027002D00
:109AD00003D1202322689A432260231C00224333AF
:109AE0001A7002E00A27454B03936368A360002BBA
:109AF00003DB0422216891432160002D02D1049EE2
:109B0000002B0ED0049E281C391CFFF761FC039B20
:109B1000013E5B5C281C3370391CFFF7D3FB051E2C
:109B2000F1D1082F09D12368DB0706D563682269C4
:109B3000934202DC3023013E3370049B9B1B236164
:109B40002BE009681A68080607D4490605D5111DD7
:109B500019601368A28A1A8004E0111D1960136845
:109B600062691A600023049E236116E01A68111DC1
:109B7000196016680021301C626800F0B5FA0028F0
:109B800001D0801B6060636803E0261C423632709F
:109B9000012323610023049A1370079B0598009307
:109BA000211C069B09AAFFF7A7FE431C02D1012036
:109BB000404221E0236905980699321C079DA84779
:109BC000431CF4D023689B0705D4099BE0689842A6
:109BD00012DA181C10E00025E368099A9B1A9D42CE
:109BE000F3DA221C0123059806991932079EB04723
:109BF000431CDCD00135EFE70BB0F0BD8DA30100B5
:109C00009EA3010038B50023064C051C081C2360E8
:109C100000F014FB431C03D12368002B00D02B6001
:109C200038BDC0463022002038B50C1C0E25495FD7
:109C300000F0ACFA002803DB636D1B18636503E0DA
:109C4000A289024B1340A38138BDC046FFEFFFFF3E
:109C5000F8B51E1C8B89051C0C1C171CDB0505D5D3
:109C60000E23C95E0022022300F0D2F9A289054B1F
:109C7000281C1340A3813A1C0E23E15E331C00F024
:109C800077F8F8BDFFEFFFFF38B50C1C0E25495FD4
:109C900000F0BEF9A389421C03D1054A1340A381F9
:109CA00004E0802252011343A381606538BDC046A1
:109CB000FFEFFFFF08B50E23C95E00F0E1F808BD15
:109CC00070B5051C0E1C141C002804D08369002BE1
:109CD00001D1FFF7EFFB234B9C4201D16C6808E0F8
:109CE000214B9C4201D1AC6803E0204B9C4200D147
:109CF000EC68A369A360A3891B070AD52369002B1D
:109D000007D023682269F6B2981A636998420FDB7C
:109D100008E0281C211C00F03FF80028F1D00120A9
:109D200040421DE0281C211C00F046F90028F6D115
:109D3000A3680130013BA36023685A1C22601E7097
:109D40006369984205D0A389301CDB0708D50A2E29
:109D500006D1281C211C00F02FF90028DFD1301C6F
:109D600070BDC0461CA301003CA301005CA3010020
:109D700038B5051C0020074C2060081C111C1A1C5B
:109D8000FFF75EFA431C03D12368002B00D02B6041
:109D900038BDC04630220020354B70B51D68061C0A
:109DA0000C1C002D05D0AB69002B02D1281CFFF73D
:109DB00081FB304B9C4201D16C6808E02E4B9C42E9
:109DC00001D1AC6803E02D4B9C4200D1EC68A38923
:109DD0009AB2110723D4D10607D409220120326098
:109DE00037321343A381404240E0530713D5616BE0
:109DF000002908D0231C4433994202D0301C00F0C3
:109E00007FF9002363632422A3899343A381002362
:109E10006360236923600822A3891343A381236914
:109E2000002B0BD1A023A2899B001340802292001B
:109E3000934203D0301C211C00F0FEF80123A289BC
:109E4000134005D00023A36063695B42A36103E074
:109E5000910700D46369A36000202369834205D180
:109E6000130603D540231A43A281013870BDC046B2
:109E7000602000201CA301003CA301005CA30100A2
:109E800038B50023064C051C081C236000F0B6F909
:109E9000431C03D12368002B00D02B6038BDC04683
:109EA00030220020F7B58A89051C0C1C13075ED4EC
:109EB0004B68002B02DC0B6C002B1ADDE76A002FCD
:109EC00017D000232E682B6080235B011A4001D03D
:109ED000626D15E0281C216A0123B847021C431C4F
:109EE0000ED12B68002B0BD01D2B01D0162B02D1CD
:109EF0002E6000205EE04021A3890B43A38159E03E
:109F0000A3895B0706D56368D21A636B002B01D067
:109F1000236CD21A0023281C216AE76AB847A38958
:109F2000421C06D12A68002A03D01D2A01D0162A15
:109F300019D10022626022692260DB0405D5431C2E
:109F400002D12B68002B00D16065616B2E60002967
:109F5000CFD0231C4433994202D0281C00F0D0F803
:109F60000020606326E040221343A38122E00F69B2
:109F7000002FBED00B680F60DB1B019300239207FC
:109F800000D14B69A360019B002BB2DD281C216A24
:109F90003A1C019BA66AB047002806DC402201203B
:109FA000A38940421343A38104E0019B3F181B1A7D
:109FB0000193E8E7FEBD000038B50B69051C0C1CD9
:109FC000002B01D100201CE0002804D08369002B65
:109FD00001D1FFF76FFA0B4B9C4201D16C6808E08E
:109FE000094B9C4201D1AC6803E0084B9C4200D174
:109FF000EC680C22A35E002BE4D0281C211CFFF788
:10A0000051FF38BD1CA301003CA301005CA301006B
:10A0100038B5051C0020074C2060081C111C1A1CB8
:10A0200000F004F9431C03D12368002B00D02B60FF
:10A0300038BDC04630220020F0B58B8991B09B0717
:10A0400006D50B1C47330B600B6101234B6145E0C8
:10A050000C1C0E23C95E061C002904DA8023A58986
:10A060001D4010D10CE001AA00F0A4F80028F5DB97
:10A07000F023029D1B021D40194BED186B425D4100
:10A080008027FF0001E000254027301C391CFFF726
:10A09000A3FA00280CD1A3899A051FD402221343E6
:10A0A000A381231C4733236023610123636115E0EF
:10A0B00080220C4BB362A38920601343A3812061EB
:10A0C0006761002D0AD00E23E15E301C00F084F899
:10A0D000002803D00122A3891343A38111B0F0BD4E
:10A0E00000E0FFFF31940100C9B28218904204D011
:10A0F00003788B4202D00130F8E70020704700005F
:10A1000030B500293ED004390B68002B00DAC9189D
:10A110001D4A1368141C002B02D14B60116031E002
:10A1200099420DD208680A189A4203D11368C318DD
:10A130000B6053684B60216024E08A4203D8131CF3
:10A140005A68002AF9D11D685C198C420BD1096844
:10A15000691858181960904214D11068526809188B
:10A1600019605A600EE08C4202D90C23036009E0AA
:10A1700008680C18944203D11468526800190860EA
:10A180004A60596030BDC046E421002038B5051C46
:10A190000020074C2060081C111C1A1CFFF75EF8F9
:10A1A000431C03D12368002B00D02B6038BDC04670
:10A1B0003022002038B50023064C051C081C111C59
:10A1C000236000F023F8431C03D12368002B00D048
:10A1D0002B6038BD3022002038B50023064C051C0A
:10A1E000081C236000F01AF8431C03D12368002BDD
:10A1F00000D02B6038BDC0463022002058220120FC
:10A20000014B40421A607047302200205822012042
:10A21000014B40421A607047302200205822024B06
:10A2200000201A607047C0463022002058220120CA
:10A23000014B40421A60704730220020044A1368E4
:10A24000002B03D018181060181C7047014BF9E759
:10A25000E821002038220020F8B5C046F8BC08BC30
:10A260009E467047F8B5C046F8BC08BC9E4670478D
:10A270004300000000200020010000010A0B62637F
:10A280000000000000F0EB00554E4B4E4F574E20A3
:10A290004D5347205459504520256C780A00000042
:10A2A00057524F4E4720414444520A0043524320E4
:10A2B0004641494C0A0000000D3030303030312E1C
:10A2C0004E412E383E5B253033785D2530336C7837
:10A2D0002E3128322E30332E253034787C352E30F6
:10A2E000362E303030377C382E30392E3030313009
:10A2F000292B31313131313131310A00554D3A207C
:10A30000256C780A0000000054494D454F55540A09
:10A31000000000004352430A00000000000000005B
:10A32000000000000000000000000000000000002D
:10A33000000000000000000000000000000000001D
:10A34000000000000000000000000000000000000D
:10A3500000000000000000000000000000000000FD
:10A3600000000000000000000000000000000000ED
:10A37000000000000000000000000000232D302B32
:10A380002000686C4C0065666745464700303132F6
:10A39000333435363738394142434445460030314D
:10A3A00032333435363738396162636465660000AC
:08A3B00010DDFF7F0100000039
:10A3B800000000001CA301003CA301005CA30100F5
:10A3C8000000000000000000000000000000000085
:10A3D80070A2010000000000000000000000000062
:10A3E8000000000000000000000000000000000065
:10A3F8000000000000000000000000000000000055
:10A408000000000000000000000000000000000044
:08A418000020002001000000FB
:0400000310009271E6
:00000001FF
